:020000040000FA
:0400000080313128F2
:100008007E148031200091100E143B35203E86006E
:1000180001308700403FF000413FF1007008003E8A
:10002800F2008030713DF3000130BB070030BC3D69
:1000380073082B0090008F010D148531E62580315F
:10004800003020003C02203003193B02031C2E28FC
:10005800BB01BC010E107E10090080313328EA3044
:1000680084008530850076308600003087000330B4
:100078008531C6258031ED308400853085004430D7
:1000880086000030870003308531C6258031D230A4
:10009800840085308500D93086000030870005301F
:1000A8008531C6258031F90139308400003085005A
:1000B8000B308531CC258031CD308400003085006F
:1000C8000C308531CC25803120308400013085000A
:1000D80040308531CC257E102000813178290034CC
:1000E800093412341B3424342D3436343F34483424
:1000F80041345A3453346C3465347E34773419348B
:1001080010340B3402343D3434342F342634513413
:10011800583443344A3475347C3467346E3432345A
:100128003B342034293416341F3404340D347A34E3
:100138007334683461345E3457344C3445342B346A
:100148002234393430340F3406341D3414346334D3
:100158006A347134783447344E3455345C346434FA
:100168006D3476347F344034493452345B342C3423
:1001780025343E343734083401341A3413347D348A
:1001880074346F346634593450344B344234353413
:100198003C3427342E341134183403340A3456349A
:1001A8005F3444344D3472347B34603469341E34E3
:1001B80017340C3405343A343334283421344F346A
:1001C80046345D3454346B346234793470340734D3
:1001D8000E3415341C3423342A3431343834413441
:1001E800483453345A3465346C3477347E340934A3
:1001F80000341B3412342D3424343F34363458340C
:1002080051344A3443347C3475346E346734103492
:10021800193402340B3434343D3426342F347334D7
:100228007A346134683457345E3445344C343B3462
:100238003234293420341F3416340D3404346A34EB
:100248006334783471344E3447345C345534223452
:100258002B343034393406340F3414341D342534F7
:100268002C3437343E340134083413341A346D34A2
:1002780064347F347634493440345B3452343C340B
:1002880035342E342734183411340A340334743492
:100298007D3466346F345034593442344B34173417
:1002A8001E3405340C3433343A34213428345F3462
:1002B80056344D3444347B347234693460340E34EB
:1002C80007341C3415342A34233438343134463452
:1002D8004F3454345D3462346B347034793466345A
:1002E8006D34743420340034853174258131003004
:1002F8002100D0000030CF000030CE000030CD000B
:1003080050082000B60021004F082000B500210049
:100318004E082000B40021004D082000B3008231AF
:100328004722813100000230200041064204031DAB
:10033800C301210058082000A3002100570820000D
:10034800A200210056082000A10021005508200025
:10035800A00084312324813103307606031DD3297C
:1003680020000E14210050082000AA0021004F0888
:100378002000A90021004E082000A80021004D08F7
:100388002000A70085311225813102302000B800F5
:100398003808F6000E10FF30B8003808F7000230B1
:1003A8007606031DEF298531B82581312000B80074
:1003B8003808F700770A0319EF29FE307706031D7E
:1003C800E729F601EF290330B8003808F6000030B5
:1003D8008531AA2581317608031DB02920003A0805
:1003E800803AB80082303802031DFC2900303902F7
:1003F800031C122A85319825813101302100CD074F
:100408000030CE3D0030CF3D0030D03D2000B90156
:10041800BA010330B8003808F600B02920003C08BB
:100428004506031D192A3B0844060319B0298531DE
:10043800B82581312000B8003808BD008531B825BD
:1004480081312000B8003808BE003D3086008701A1
:100458004435203E840001308500403F803F413FC5
:10046800813F0130C4070030C53D003045022030CF
:1004780003194402031C422AC401C5010230B9070A
:100488000030BA3DB02920003608AA003508A90076
:100498003408A8003308A700853112258231F601F7
:1004A800FF302000B70037082100A800280A031DE4
:1004B800612A8531B8258231552AFE30280603196C
:1004C800692A00308531AA2582310830F4000030CD
:1004D800F500A03084317A248231DC30F400853094
:1004E800F500A0308431EC248231003A031D802AC3
:1004F80001308531AA2582311C30F4000030F50026
:10050800B13084317A248231D730F4008530F50057
:10051800B1308431EC248231003A031D972A02302D
:100528008531AA2582317330F4008130F500B53069
:100538008431EC248231003A031DA62A0330853128
:10054800AA25823121003D033E040319AF2A043055
:100558008531AA258231103021004B064C0403193D
:10056800B92A05308531AA258231210040082000AA
:10057800C20021003F082000C1001030B13E8600B3
:100588008701403F2100D500413FD600423FD700B8
:10059800433FD8000830F4000030F500A93084311A
:1005A8007A248231E130F4008530F500A9308431B5
:1005B800EC248231003A031DE42A06308531AA254D
:1005C8000430A93E86008701403F2100D100413F09
:1005D800D200423FD300433FD4000000080020006F
:1005E800A400A60124083F394038F5007508A50085
:1005F80025088531B125823120002635F50075089A
:10060800A60026082506F5007508A6002608733EEC
:10061800840080300318013E85000008F500750845
:10062800A6002008F5007508A50025088531B12524
:10063800823120002635F5007508A6002608250613
:10064800F5007508A6002608733E8400803003185C
:10065800013E85000008F5007508A6002108F50090
:100668007508A50025088531B12582312000263579
:10067800F5007508A60026082506F5007508A600E9
:100688002608733E840080300318013E8500000868
:10069800F5007508A6002208F5007508A5002508CC
:1006A8008531B125823120002635F5007508A60070
:1006B80026082506F5007508A6002608733E84005E
:1006C80080300318013E85000008F5007508A60073
:1006D8002308F5007508A50025088531B125823164
:1006E80020002635F5007508A60026082506F50021
:1006F8007508A6002608733E840080300318013E62
:1007080085000008F5007508A6000314260DF500FD
:100718007508A50025088531B125080020008E1729
:1007280024009513FF308531B1258331FF308531A1
:10073800B1258331FF308531B1258331FF308531D3
:10074800B1258331FF308531B1258331FF308531C3
:10075800B1258331FF308531B1258331FF308531B3
:10076800B1258331FF308531B1258331FF308531A3
:10077800B125833120008E13240095132000A00199
:10078800A101A201A30100308231F3228331853116
:1007980088258331000001308531A1258331003A55
:1007A8000319C22B2000A001A101A201A20AAA30AC
:1007B800A7002708A30008308231F322833184314F
:1007C800BF24833100002000A001A101A201A20AD8
:1007D800AA30A7002708A3000130853136258331C8
:1007E800003A0319D62B2000A001A101A201A30100
:1007F80037308231F32283318531882583310000F7
:1008080001308531A1258331003A0319F72B403097
:100818002000A7002708A000A101A201A3012930F8
:100828008231F322833185318825833100000030FD
:100838008531A1258331003A031D0800F72B2000DC
:100848009110210091140B178B174C2C6430290040
:10085800940003309700893095002000911008001B
:10086800213029009400033097008A309500080051
:100878006F302900940003309700823095000800FB
:1008880064302900940003309700843095000800F4
:1008980020002308003A0319742C792C21083E3AC9
:1008A8000319602C433A0319652CD13A03196A2CB1
:1008B800173A03196F2C792C2008803A03192A2C2F
:1008C800792C2008003A0319442C792C2008443A42
:1008D8000319342C792C2008803A03193C2C792CE4
:1008E8002208003A0319522C792C08002000A20093
:1008F800A301A4012408803AA0007508803A2002C8
:10090800031D882C74082302031808008531B825B4
:1009180084312000A00023082207A10021088600B6
:100928008701200881000130B9070030BA3D3A0834
:10093800803AA00082302002031DA42C0030390226
:10094800031CB92C85319825843101302100CD074D
:100958000030CE3D0030CF3D0030D03D2000B90101
:10096800BA010330A0002008F60001302000A307D8
:100978000030A43D7E2C8531B8258431F4007408FC
:10098800F500750A0319BF2C7508F40074082100D6
:10099800D9008531B8258431F40074082100DA00C3
:1009A8008531B8258431F40074082100DB008531D5
:1009B800B8258431F40074082100DC008531B8259D
:1009C8008431F40074082100DD008531B825080061
:1009D8002000A400A5017508A1007408A00025083E
:1009E8002007840021080318210A85000008A200B6
:1009F80025082407A300230886008701010822068A
:100A08000319082D003008000130A0002008A507B0
:100A180004302502031CEF2C0130080020002A08AE
:100A2800B2002908B1002808B0002708AF00320832
:100A3800AB002B08A0003108AC002C08A10030083E
:100A4800AD002D08A2002F08AE002E08A30011301B
:100A58008231F32285318531882585310030853111
:100A6800A1250800F400F501F50A210059087406CB
:100A7800031DF5015A0820002006031DF501210079
:100A88005B0820002106031DF50121005C082000F9
:100A98002206031DF50121005D0820002306031D21
:100AA800F5017508080021000E1121303D00A20053
:100AB80012303C00BA0021008E1523008E1113302D
:100AC8003C00BB0021000E1223303D00A400210091
:100AD8008E13803024009400303095009201080075
:100AE800F43021009B001C1E772D8D1423008D10DF
:100AF80021000E108E1085315725853183319223C0
:100B080085318531BF2508008531B8258531F40048
:100B18007408F500750A0319882D7508F40074081F
:100B2800F8008531B82508008531B825853185312B
:100B3800B82585318531B8250800F400F501F50A96
:100B480074087806031DF50175080800F500750896
:100B5800F4007408F90000000800F4007408240088
:100B6800910014180800B52DFF3024009100141CC2
:100B7800BB2D11080800FB3021008C00E0302B0051
:100B88008E000800FE0012001E00FE0BC72D003468
:100B9800640080010131890BCD2D0034FF34FF340E
:100BA800FF34FF34FF34573441345634453400346D
:100BB800523449344634463400346434613474342D
:100BC8006134003420000E140E1008000334FF3482
:080BD800FF3401340034013444
:020000040001F9
:04000E00E4FFFFFF0D
:00000001FF
