:020000040000FA
:0400000080313328F0
:100008007E148031200091100E147708F1007608D4
:10001800F000F035F10DF030F2002630F3007008F2
:10002800720786007108733D8700403FF400413F26
:10003800F5000130F6070030F73D75082B009000F9
:100048008F010D1400307702803003197602031CEB
:100058002F28F601F70120000E107E1009008031CC
:100068003528863137268031F900863138268031A7
:10007800FA00863139268031FB0086313A268031F4
:10008800E70086313B268031E80086313C26803106
:10009800E900233084008630850021001200BD006D
:1000A8001200BE001200BF001200C0001200C10002
:1000B800F0308400263085000030FE000130FF005B
:1000C8008531E6258031F601F701F801A03084007A
:1000D800003085001530FE000030FF008531E62530
:1000E8007E10200081317D290034093412341B34FC
:1000F80024342D3436343F34483441345A3453345C
:100108006C3465347E347734193410340B3402344B
:100118003D3434342F3426345134583443344A343B
:1001280075347C3467346E3432343B3420342934AB
:1001380016341F3404340D347A347334683461341B
:100148005E3457344C3445342B342234393430340B
:100158000F3406341D34143463346A3471347834FB
:1001680047344E3455345C3464346D3476347F34DB
:100178004034493452345B342C3425343E343734DB
:10018800083401341A3413347D3474346F346634CB
:10019800593450344B34423435343C3427342E34BB
:1001A8001134183403340A3456345F3444344D342B
:1001B80072347B34603469341E3417340C3405349B
:1001C8003A343334283421344F3446345D3454348B
:1001D8006B3462347934703407340E3415341C347B
:1001E80023342A34313438344134483453345A347B
:1001F80065346C3477347E34093400341B3412345B
:100208002D3424343F343634583451344A3443344A
:100218007C3475346E3467341034193402340B343A
:1002280034343D3426342F3473347A3461346834AA
:1002380057345E3445344C343B343234293420341A
:100248001F3416340D3404346A346334783471340A
:100258004E3447345C34553422342B3430343934FA
:1002680006340F3414341D3425342C3437343E34DA
:100278000134083413341A346D3464347F347634DA
:10028800493440345B3452343C3435342E342734CA
:10029800183411340A34033474347D3466346F34BA
:1002A8005034593442344B3417341E3405340C342A
:1002B80033343A34213428345F3456344D3444349A
:1002C8007B347234693460340E3407341C3415348A
:1002D8002A3423343834313446344F3454345D347A
:1002E80062346B347034793466346D347434203449
:1002F80000348531C025813100302100A300003051
:10030800A2000030A1000030A00023082000B8009F
:10031800210022082000B700210021082000B60093
:10032800210020082000B50082317222813102307C
:10033800210032063304031DB4012B082000A3005A
:1003480021002A082000A200210029082000A1007D
:10035800210028082000A000843154248131033072
:1003680020006806031DD9290D1421002308200048
:10037800AC00210022082000AB0021002108200049
:10038800AA00210020082000A90085315B258131C1
:1003980002302100B50035082000E800FF302100B8
:1003A800B50035082000E9000D1002306806031D6D
:1003B800FB290D148631152681312100B500350839
:1003C8002000E900690A0319FB29FE306906031DAC
:1003D800EF29E801F92903302100B500350820008C
:1003E800E800003086310526813120000D106808AC
:1003F800031DB32921002D08803AB500823035024B
:10040800031D082A00302C02031C1F2A8531FC25F5
:10041800813101302100A0070030A13D0030A23D0C
:100428000030A33DAC01AD010330B5003508200014
:10043800E8000D14B3292100911077087A06031DEE
:10044800272A760879060319702A911420008E1439
:100458008631152681312100B5003508AE00863178
:10046800152681312100B5003508AF00AE30860071
:100478008701403FB500413FB6003508003EB70050
:100488008030363DB8007A08BA007908B900B93525
:10049800BA0DF030BB002630BC0039083B07860097
:1004A8003A083C3D87003708C03F3808C13F013053
:1004B800F9070030FA3D20008E1000307A028030B3
:1004C80003197902031C6A2AF901FA010230210092
:1004D800AC070030AD3DB3299114B329200038088A
:1004E800AC003708AB003608AA003508A9008531EA
:1004F8005B2582312000E801FF30B9003908C200CD
:10050800420A031D8C2A8631152682312000812A51
:10051800FE3042060319942A0030863105268231BE
:1005280008302000A0000030A1003A308431BB24FC
:1005380082312D302000A0008630A1003A3085316C
:1005480035258231003A031DAD2A01308631052652
:1005580082311C302000A0000030A1004B308431D3
:10056800BB24823128302000A0008630A1004B3007
:10057800853135258231003A031DC62A023086317D
:100588000526823178302000A0008130A1004F304C
:10059800853135258231003A031DD62A033086314C
:1005A800052682312000570358040319DF2A043036
:1005B800863105268231103020006506660403194D
:1005C800E92A053086310526823120005A082100A3
:1005D800B300200059082100B20010304B3E8600BD
:1005E8008701403FA800413FA900423FAA00433F7E
:1005F800AB0008302000A0000030A1004330843157
:10060800BB24823132302000A0008630A100433064
:10061800853135258231003A031D152B0630863188
:1006280005260430433E86008701403F2100A40090
:10063800413FA500423FA600433FA7000000080035
:100648002000A600A80126083F394038A500250843
:10065800A700270886310D26833120002835A500FC
:100668002508A80028082706A5002508A8002808A6
:10067800783E840080300318013E85000008A500FC
:100688002508A8002108A5002508A7002708863105
:100698000D26833120002835A5002508A800280844
:1006A8002706A5002508A8002808783E8400803081
:1006B8000318013E85000008A5002508A8002208A7
:1006C800A5002508A700270886310D2683312000BC
:1006D8002835A5002508A80028082706A50025080C
:1006E800A8002808783E840080300318013E850061
:1006F8000008A5002508A8002308A5002508A700CC
:10070800270886310D26833120002835A5002508C5
:10071800A80028082706A5002508A8002808783E6C
:10072800840080300318013E85000008A5002508D4
:10073800A8002408A5002508A700270886310D264B
:10074800833120002835A5002508A8002808270699
:10075800A5002508A8002808783E840080300318E2
:10076800013E85000008A5002508A8000314280DEF
:10077800A5002508A700270886310D2608002000B7
:100788008E1724009513FF3086310D268331FF30F4
:1007980086310D268331FF3086310D268331FF30B7
:1007A80086310D268331FF3086310D268331FF30A7
:1007B80086310D268331FF3086310D268331FF3097
:1007C80086310D268331FF3086310D268331FF3087
:1007D80086310D26833120008E13240095132000C6
:1007E800A101A201A301A401003083312423833194
:1007F8008531D5258331000001308531F2258331DB
:10080800003A0319F32B2000A101A201A301A30AB6
:10081800AA30A9002908A400083083312423833191
:1008280085310325833100002000A001A101A20128
:10083800A20AAA30A9002908A300013085317F2522
:100848008331003A0319072C2000A101A201A3015A
:10085800A40137308331242383318531D525833171
:10086800000001308531F2258331003A0319282C24
:1008780040302000A9002908A100A201A301A40179
:1008880029308331242383318531D52583310000F4
:1008980000308531F2258331003A031D0800282CE9
:1008A80020009110210091140B178B17852C6430B0
:1008B800290094000330970089309500200091109A
:1008C8000800203029009400033097008A309500F2
:1008D80008006F302900940003309700823095009B
:1008E8000800643029009400033097008430950094
:1008F8000800413029009400033097008A309500A1
:10090800080020002308003A0319B52CBA2C210846
:100918003E3A03199C2C683A0319A12C2B3A031967
:10092800A62CD13A0319AB2C173A0319B02CBA2CC0
:100938002008803A03195B2CBA2C2008223A0319A4
:100948007D2CBA2C2008003A0319752CBA2C2008E3
:10095800443A0319652CBA2C2008803A03196D2CE7
:10096800BA2C2208003A03198B2CBA2C0800200054
:10097800A400A501A6012608803AA2002108803A11
:100988002202031DC92C20082502031808008631FD
:10099800152684312000A20025082407A300230877
:1009A800860087012208810001302100AC07003051
:1009B800AD3D2D08803A2000A20082302202031D9E
:1009C800E82C003021002C02031CFD2C8531FC256D
:1009D800843101302100A0070030A13D0030A23D44
:1009E8000030A33DAC01AD0103302000A200220875
:1009F800E80001302000A5070030A63DBF2C863155
:100A0800152685312000A0002008A100210A03191D
:100A1800032D2108A00020082100BD0086311526DD
:100A280085312000A00020082100BE00863115264F
:100A380085312000A00020082100BF00863115263E
:100A480085312000A00020082100C000863115262D
:100A580085312000A00020082100C100863115261C
:100A680008002000A600A7012108A3002008A20072
:100A780027082207840023080318230A8500000892
:100A8800A40027082607A500250886008701010875
:100A980024060319512D003008000130A200220855
:100AA800A70704302702031C382D01300800200056
:100AB8002C08B4002B08B3002A08B2002908B1009A
:100AC8003408AD002D08A1003308AE002E08A2009E
:100AD8003208AF002F08A3003108B0003008A40086
:100AE80011308331242385318531D5258531003076
:100AF8008531F22508002000A400A501A50A2100DF
:100B08003D0820002406031DA50121003E08200001
:100B18002006031DA50121003F0820002106031D12
:100B2800A5012100400820002206031DA50121007F
:100B3800410820002306031DA501250808002100FF
:100B48000E1121303D00A20012303C00BA002100F5
:100B58008E1523008E1113303C00BB0021000E12AD
:100B680023303D00A40021008E138030240094001F
:100B78003030950092010800F43021009B001C1EC3
:100B8800C32D8D1423008D1021000E108E100D1012
:100B98008531A32585318331C323853186311C26D0
:100BA80008008631152685312000A0002008A10004
:100BB800210A0319D52D2108A0002008FB00863141
:100BC800152608006400800101310130FE02003062
:100BD800FF3B7F087E0403190034E72D2000A000A6
:100BE800A101A10A20087B06031DA1012108080014
:100BF80086311526853186311526853186311526AB
:100C080008002000A1002108A0002008F80000002A
:100C180008002000A00020082400910014180800F3
:100C2800122EFF3024009100141C182E1108080001
:100C3800FB3021008C00E0302B008E000800FF34D0
:100C4800FF34FF34FF34FF345734413456344534CD
:100C58000034523449344634463400346434613400
:100C680074346134003401340034FF340134033403
:020C7800FF3447
:020000040001F9
:04000E00E4FFFFFF0D
:00000001FF
