:020000040000FA
:0400000080312F28F4
:100008007E148031200091100E146908F000013030
:10001800F035FF3E031D0C287035203E8600013068
:100028008700403FF100413FF2000130E90700300E
:10003800EA3D72082B0090008F010D14003020005B
:100048006A02103003196902031C2C28E901EA012D
:100058000E107E100900803131282530840086304A
:100068008500783086000030870003308631052609
:10007800803128308400863085006D30860000305D
:1000880087000330863105268031113084008630A0
:100098008500B2308600003087000530863105269D
:1000A80080316530840000308500083086310B26A9
:1000B8008031A030840000308500123086310B2654
:1000C80080312030840001308500403086310B2695
:1000D8007E102000813175290034093412341B3414
:1000E80024342D3436343F34483441345A3453346C
:1000F8006C3465347E347734193410340B3402345C
:100108003D3434342F3426345134583443344A344B
:1001180075347C3467346E3432343B3420342934BB
:1001280016341F3404340D347A347334683461342B
:100138005E3457344C3445342B342234393430341B
:100148000F3406341D34143463346A34713478340B
:1001580047344E3455345C3464346D3476347F34EB
:100168004034493452345B342C3425343E343734EB
:10017800083401341A3413347D3474346F346634DB
:10018800593450344B34423435343C3427342E34CB
:100198001134183403340A3456345F3444344D343B
:1001A80072347B34603469341E3417340C340534AB
:1001B8003A343334283421344F3446345D3454349B
:1001C8006B3462347934703407340E3415341C348B
:1001D80023342A34313438344134483453345A348B
:1001E80065346C3477347E34093400341B3412346B
:1001F8002D3424343F343634583451344A3443345B
:100208007C3475346E3467341034193402340B344A
:1002180034343D3426342F3473347A3461346834BA
:1002280057345E3445344C343B343234293420342A
:100238001F3416340D3404346A346334783471341A
:100248004E3447345C34553422342B34303439340A
:1002580006340F3414341D3425342C3437343E34EA
:100268000134083413341A346D3464347F347634EA
:10027800493440345B3452343C3435342E342734DA
:10028800183411340A34033474347D3466346F34CA
:100298005034593442344B3417341E3405340C343A
:1002A80033343A34213428345F3456344D344434AA
:1002B8007B347234693460340E3407341C3415349A
:1002C8002A3423343834313446344F3454345D348A
:1002D80062346B347034793466346D347434203459
:1002E80000348531AC25813100302100A300003075
:1002F800A2000030A1000030A00023082000B300B5
:10030800210022082000B200210021082000B100AD
:10031800210020082000B00082316C228131023097
:1003280021003006310403199B292000EB0121002C
:100338002B08F6002A08F5002908F4002808F3001D
:100348008431442481317A08031D78297A08031DF1
:10035800A72921002D08803A2000E200823062029D
:10036800031DB929003021002C02031CCB292100D0
:10037800AC01AD018531F72581318531F725813112
:100388008531F72581318531F7258131A72921006C
:10039800911020006A087906031DD4296908780697
:1003A8000319692A210091144D2A8531F7258131D5
:1003B8002000E2006208E5008531F7258131200040
:1003C800E2006208E6006508003EE2008030663D13
:1003D800E3007808E4000130E435FF3E031DF0290E
:1003E8006435203E8600013087006208C03F6308FC
:1003F800C13F0130F8070030F93D00005A2A2000BB
:100408006B080319332A8531F72581312000E20072
:100418006208E7008531F72581312000E200620893
:10042800E8000030E7078030E83D7808E200013056
:10043800E235FF3E031D1C2A6235203E860001304E
:1004480087006508C03F6608C13F6708C23F680863
:10045800C33F0130F8070030F93DEB015A2A8531D6
:10046800F72581312000E2006208E5008531F72593
:1004780081312000E2006208E6000030E5078030A4
:10048800E63DEB01EB0A5A2A07308531E825813130
:100498005A2A3108003A0319522A482A3008013AE0
:1004A8000319D929033A0319032A482A0030790283
:1004B800103003197802031C632AF801F90102308D
:1004C8002100AC070030AD3DA72921009114A729D0
:1004D80020003308A7003208A6003108A50030081C
:1004E800A40085316B258231FA01FF302000B40069
:1004F8003408BD003D0A031D852A8531F725823160
:100508007A2AFE303D0603198D2A00308531E82508
:1005180082310830F3000030F40035308431AA24E9
:1005280082311B30F3008630F400353085314525A3
:100538008231003A031DA42A01308531E825823131
:100548001C30F3000030F40046308431AA24823194
:100558001630F3008630F400463085314525823167
:10056800003A031DBB2A02308531E82582317030FC
:10057800F3008130F4004A30853145258231003A54
:10058800031DCA2A03308531E82582312000520331
:1005980053040319D32A04308531E82582311030F9
:1005A8002000600661040319DD2A05308531E8253D
:1005B8008231200055082100B10020005408210094
:1005C800B0001030463E86008701403FA800413FFA
:1005D800A900423FAA00433FAB000830F3000030B7
:1005E800F4003E308431AA2482312030F300863072
:1005F800F4003E30853145258231003A031D072B32
:1006080006308531E82504303E3E86008701403FAC
:100618002100A400413FA500423FA600433FA70098
:10062800000008002000A100A30121083F3940383C
:10063800A0002008A20022088531F025833120007F
:100648002335A0002008A30023082206A0002008C4
:10065800A3002308703E840080300318013E850003
:100668000008A0002008A3007408A0002008A20029
:1006780022088531F025833120002335A000200889
:10068800A30023082206A0002008A3002308703E28
:10069800840080300318013E85000008A00020086F
:1006A800A3007508A0002008A20022088531F025C3
:1006B800833120002335A0002008A3002308220648
:1006C800A0002008A3002308703E8400803003188F
:1006D800013E85000008A0002008A3007608A000BD
:1006E8002008A20022088531F02583312000233517
:1006F800A0002008A30023082206A0002008A300C9
:100708002308703E840080300318013E85000008ED
:10071800A0002008A3007708A0002008A200220853
:100728008531F025833120002335A0002008A3005F
:1007380023082206A0002008A3002308703E840096
:1007480080300318013E85000008A0002008A3009F
:100758000314230DA0002008A20022088531F025EB
:10076800080020008E1724009513FF308531F025EE
:100778008331FF308531F0258331FF308531F02515
:100788008331FF308531F0258331FF308531F02505
:100798008331FF308531F0258331FF308531F025F5
:1007A8008331FF308531F0258331FF308531F025E5
:1007B8008331FF308531F025833120008E132400EA
:1007C8009513F401F501F601F70100308331162382
:1007D80083318531C4258331000001308531D52529
:1007E8008331003A0319E52BF401F501F601F60A05
:1007F800AA302000A4002408F7000830833116230B
:1008080083318431EF2483310000F301F401F501D1
:10081800F50AAA302000A4002408F600013085312A
:100828001C258331003A0319F82BF401F501F60170
:10083800F70137308331162383318531C42583315D
:10084800000001308531D5258331003A0319192C70
:1008580040302000A4002408F400F501F601F70157
:1008680029308331162383318531C4258331000033
:1008780000308531D5258331003A031D0800192C35
:1008880020009110210091140B178B17752C6430E0
:1008980029009400033097008930950020009110BA
:1008A8000800203029009400033097008A30950012
:1008B80008006F30290094000330970082309500BB
:1008C80008006430290094000330970084309500B4
:1008D8000800413029009400033097008A309500C1
:1008E80008007608003A0319A42CA92C74083E3A8B
:1008F80003198B2C683A0319902C2B3A0319952C61
:10090800D13A03199A2C173A03199F2CA92C73086A
:10091800803A03194B2CA92C7308223A03196D2C21
:10092800A92C7308003A0319652CA92C7308443ABA
:100938000319552CA92C7308803A03195D2CA92C8E
:100948007508003A03197A2CA92C08002000A00089
:10095800A101A2012208803AF5007408803A7502C4
:10096800031DB82C73082102031808008531F725E8
:100978008431F500200021082007F600760886005B
:1009880087017508810001302100AC070030AD3DBA
:100998002D08803AF50082307502031DD52C0030F1
:1009A8002C02031CE92C8531DF258431013021001C
:1009B800A0070030A13D0030A23D0030A33DAC01AE
:1009C800AD010330F5007508FA0001302000A107D9
:1009D8000030A23DAE2C8531F7258431F300730831
:1009E800F400740A0319EF2C7408F300730821004B
:1009F800B2008531F7258431F30073082100B30074
:100A08008531F7258431F30073082100B40085315E
:100A1800F7258431F30073082100B5008531F725E7
:100A28008431F30073082100B6008531F7250800EA
:100A38002000A000A101A10A210032082000200600
:100A4800031DA10121003308730603192D2D200071
:100A5800A1012100340874060319342D2000A101D6
:100A680021003508750603193B2D2000A10121003E
:100A7800360876060319422D2000A101200021081E
:100A88000800F500F60174082000A1007308A00012
:100A980076082007840021080318210A8500000829
:100AA800A20076087507A3002308860087010108BD
:100AB80022060319612D003008000130A00020082B
:100AC800F60704307602031C472D01300800200089
:100AD8002708AF002608AE002508AD002408AC00A2
:100AE8002F08A8002808F4002E08A9002908F500F6
:100AF8002D08AA002A08F6002C08AB002B08F700DE
:100B080012308331162385318531C4258531003073
:100B18008531D525080021000E1121303D00A200A5
:100B280012303C00BA0021008E1523008E111330BC
:100B38003C00BB0021000E1223303D00A400210020
:100B48008E13803024009400303095009201080004
:100B5800F43021009B001C1EAF2D8D1423008D1036
:100B680021000E108E100D100E1320000E17853167
:100B78008F2585318331B52385318531FE250800E0
:100B88008531F7258531F3007308F400740A0319D9
:100B9800C42D7408F30073082000EF008531F72591
:100BA8000800F300F401F40A730820006F06031D1F
:100BB800F401740808008531F72585318531F7255A
:100BC80085318531F7250800F4007408F3007308AF
:100BD8002000EC0000000800F300730824009100D6
:100BE80014180800F42DFF3024009100141CFA2D6D
:100BF80011080800FB3021008C00E0302B008E002B
:100C08000800FE0012001E00FE0B062E00346400D1
:100C180080010131890B0C2E0034FF34FF34FF347E
:100C2800FF34FF3457344134563445340034523499
:100C3800493446344634003464346134743461349D
:0E0C480000340134003403340134FF34FF342F
:020000040001F9
:04000E00E4FFFFFF0D
:00000001FF
