:020000040000FA
:0400000080312728FC
:100008007E148031200091100E146335A03E8600C6
:100018008701403FF000413FF1000130E307003025
:10002800E43D71082B0090008F010D140030200072
:100038006402103003196302031C2428E301E4015D
:100048000E107E100900803129288531A7258031BE
:10005800FA008531A8258031FB00A3308400853063
:1000680085006B3086000030870004308531832599
:1000780080318F30840085308500CE308600003096
:100088008700053085318325803161308400003058
:1000980085000A30853189258031A0308400003000
:1000A80085002E30853189257E1020008231092A6D
:1000B8000034093412341B3424342D3436343F349C
:1000C800483441345A3453346C3465347E3477348C
:1000D800193410340B3402343D3434342F3426347C
:1000E8005134583443344A3475347C3467346E346C
:1000F80032343B342034293416341F3404340D345C
:100108007A347334683461345E3457344C3445344B
:100118002B342234393430340F3406341D3414343B
:1001280063346A347134783447344E3455345C342B
:1001380064346D3476347F344034493452345B341B
:100148002C3425343E343734083401341A3413340B
:100158007D3474346F346634593450344B344234FB
:1001680035343C3427342E341134183403340A34EB
:1001780056345F3444344D3472347B3460346934DB
:100188001E3417340C3405343A34333428342134CB
:100198004F3446345D3454346B34623479347034BB
:1001A80007340E3415341C3423342A3431343834AB
:1001B8004134483453345A3465346C3477347E349B
:1001C800093400341B3412342D3424343F3436348B
:1001D800583451344A3443347C3475346E3467347B
:1001E8001034193402340B3434343D3426342F346B
:1001F80073347A346134683457345E3445344C345B
:100208003B343234293420341F3416340D3404344A
:100218006A346334783471344E3447345C3455343A
:1002280022342B343034393406340F3414341D342A
:1002380025342C3437343E340134083413341A341A
:100248006D3464347F347634493440345B3452340A
:100258003C3435342E342734183411340A340334FA
:1002680074347D3466346F345034593442344B34EA
:1002780017341E3405340C3433343A3421342834DA
:100288005F3456344D3444347B34723469346034CA
:100298000E3407341C3415342A34233438343134BA
:1002A80046344F3454345D3462346B3470347934AA
:1002B80066346D3474342034003420003208A600CB
:1002C8003108A5003008A4002F08A3008431D124E8
:1002D8008131FA01FF302000B3003308BC003C0A2A
:1002E800031D7A298531752581316F29FE303C0639
:1002F8000319822900308531662581310830F200E2
:100308000030F300343084313C2481319930F200DC
:100318008530F30034308431AC248131003A031D38
:10032800992901308531662581311C30F200003071
:10033800F300453084313C2481319430F20085301B
:10034800F30045308431AC248131003A031DB029D3
:1003580002308531662581315C30F2008130F3004E
:1003680049308431AC248131003A031DBF29033060
:100378008531662581312000510352040319C829AB
:100388000430853166258131103020005F06600415
:100398000319D2290530853166258131200054089A
:1003A800E8005308E7001030453E86008701403FCB
:1003B8002100C800413FC900423FCA00433FCB006B
:1003C8000830F2000030F3003D3084313C248131A4
:1003D8009E30F2008530F3003D308431AC24813109
:1003E800003A031DFA2906308531662504303D3E62
:1003F80086008701403F2100C400413FC500423FBD
:10040800C600433FC7000000080085312C25823113
:1004180000302100C3000030C2000030C1000030AD
:10042800C00043082000B200210042082000B100AB
:10043800210041082000B000210040082000AF0042
:100448008131612182310230200067066804031D72
:10045800E90121004B08F5004A08F4004908F300B7
:100468004808F2008331D62382317A08031D0C2A0A
:100478007A08031D392A20006208803A2100D30037
:1004880082305302031D4B2A003020006102031CF6
:100498005D2A2000E101E20185317525823185312F
:1004A80075258231853175258231853175258231F1
:1004B800392A21009110200064086C06031D662A61
:1004C80063086B060319A82A2100911420008E14D2
:1004D8008531752582312100D30053082000E500BD
:1004E8008531752582312100D30053082000E600AC
:1004F800653086008701403F2100D300413FD4008A
:100508005308003ED5008030543DD60020006B359E
:10051800A03E8600870121005508C03F5608C13F0C
:1005280001302000EB070030EC3D8E1000306C02EB
:10053800103003196B02031CA32AEB01EC010230F3
:10054800E1070030E23D392A21009114392A2000C0
:10055800A000A20120083F394038F7007708A10021
:10056800210885316E25823120002235F700770871
:10057800A20022082106F7007708A20022085C3EA4
:10058800840080300318013E85000008F7007708D2
:10059800A2007308F7007708A100210885316E25AD
:1005A800823120002235F7007708A20022082106B0
:1005B800F7007708A20022085C3E84008030031808
:1005C800013E85000008F7007708A2007408F700CC
:1005D8007708A100210885316E2582312000223557
:1005E800F7007708A20022082106F7007708A20082
:1005F80022085C3E840080300318013E8500000814
:10060800F7007708A2007508F7007708A10021080D
:1006180085316E25823120002235F7007708A20047
:1006280022082106F7007708A20022085C3E840011
:1006380080300318013E85000008F7007708A20003
:100648007608F7007708A100210885316E258231E8
:1006580020002235F7007708A20022082106F700BB
:100668007708A20022085C3E840080300318013E0F
:1006780085000008F7007708A2000314220DF70090
:100688007708A100210885316E25080020008E1703
:1006980024009513FF3085316E258331FF30853175
:1006A8006E258331FF3085316E258331FF308531EA
:1006B8006E258331FF3085316E258331FF308531DA
:1006C8006E258331FF3085316E258331FF308531CA
:1006D8006E258331FF3085316E258331FF308531BA
:1006E8006E25833120008E1324009513F301F40145
:1006F800F501F60100308231AB2283318531442582
:1007080083310000013085315D258331003A0319BA
:100718007A2BF301F401F501F50AAA30F8007808FC
:10072800F60008308231AB22833184317F24833153
:100738000000F201F301F401F40AAA30F800780885
:10074800F5000130853112258331003A03198D2BCC
:10075800F301F401F501F60137308231AB22833120
:100768008531442583310000013085315D25833191
:10077800003A0319AC2B4030F8007808F300F40174
:10078800F501F60129308231AB22833185314425C8
:1007980083310000003085315D258331003A031D27
:1007A8000800AC2B20009110210091140B178B1717
:1007B800072C643029009400033097008930950095
:1007C8002000911008002030290094000330970081
:1007D8008A30950008006F30290094000330970094
:1007E8008230950008006430290094000330970097
:1007F80084309500080041302900940003309700A8
:100808008A30950008007508003A0319362C3B2CED
:1008180073083E3A03191D2C683A0319222C2B3A07
:100828000319272CD13A03192C2C173A0319312C08
:100838003B2C7208803A0319DD2B3B2C7208223AB4
:100848000319FF2B3B2C7208003A0319F72B3B2C9A
:100858007208443A0319E72B3B2C7208803A0319B3
:10086800EF2B3B2C7408003A03190C2C3B2C080086
:10087800F600F701F8017808803AF4007308803A26
:100888007402031D492C7208770203180800853189
:1008980075258431F40077087607F5007508860019
:1008A80087017408810001302000E1070030E23D33
:1008B8006208803AF40082307402031D652C00300F
:1008C8006102031C7A2C85315425843101302100C2
:1008D800C0070030C13D0030C23D0030C33D20009C
:1008E800E101E2010330F4007408FA000130F7076F
:1008F8000030F83D3F2C853175258431F2007208AF
:10090800F300730A03197F2C7308F20072082100A0
:10091800CE00853175258431F20072082100CF00A0
:10092800853175258431F20072082100D0008531A7
:1009380075258431F20072082100D10085317525B2
:100948008431F20072082100D20085317525080033
:10095800F800F9017308F5007208F40079087407C3
:10096800840075080318750A85000008F6007908E0
:100978007807F700770886008701010876060319CB
:10098800C72C003008000130F4007408F90704305F
:100998007902031CAE2C0130080020002608AE00A6
:1009A8002508AD002408AC002308AB002E08A700DA
:1009B8002708F3002D08A8002808F4002C08A9002F
:1009C8002908F5002B08AA002A08F60012308231FF
:1009D800AB228431853144258431003085315D2551
:1009E800080021000E1121303D00A20012303C0009
:1009F800BA0021008E1523008E1113303C00BB0075
:100A080021000E1223303D00A40021008E138030F7
:100A1800240094003030950092010800F600F70198
:100A2800F70A21004E087606031DF7014F087206E3
:100A3800031DF70150087306031DF70151087406DA
:100A4800031DF70152087506031DF7017708080012
:100A5800F43021009B001C1E2F2D8D1423008D10B7
:100A680021000E108E100D100E1320000E17843169
:100A7800F524853183314A23853185317C25080069
:100A8800853175258531F2007208F300730A031960
:100A9800442D7308F2007208FB00853175250800A3
:100AA80085317525853185317525853185317525E2
:100AB8000800F200F301F30A72087B06031DF30134
:100AC80073080800F3007308F20072082000EA00B7
:100AD80000000800F20072082400910014180800B1
:100AE800722DFF3024009100141C782D1108080085
:100AF800FB3021008C00E0302B008E000800FE0047
:100B080012001E00FE0B842D0034640080010131A8
:100B1800890B8A2D0034FF34FF34FF34FF34FF344F
:100B28005734413456344534003452344934463409
:100B3800463400346434613474346134003401342C
:0A0B480000340134FF340334FF349D
:020000040001F9
:04000E00E4FFFFFF0D
:00000001FF
