:020000040000FA
:08000000803102288731D82F5E
:100AA600FF34FF34FF34FF34FF34FF34F0007008A6
:100AB60024009100141808005D2DFF3024009100D9
:100AC600141C632D11080800F000F101F10A7008EA
:100AD60020002506031DF10171080800640080014D
:100AE60001310130FE020030FF3B7F087E0403190E
:100AF6000034722DF43021009B001C1E802D8531A0
:100B0600B7258531863102268531873127278531FC
:100B16008B2D853160258531F0007008F100710A52
:100B260003198C2D7108F00070082000A50085318E
:100B360060250800F400F501F50A20002008740677
:100B4600031DF50121087006031DF5012208710633
:100B5600031DF50123087206031DF501240873061B
:100B6600031DF5017508080021000E1121303D0016
:100B7600A20012303C00BA0021008E1523008E110F
:100B860013303C00BB0021000E1223303D00A400B0
:100B960021008E130E13803024009400303095000F
:100BA60092010800853160258531F0007008F1005A
:100BB600710A0319D52D7108F00070082000A000F5
:100BC600853160258531F00070082000A10085314F
:100BD60060258531F00070082000A200853160256F
:100BE6008531F00070082000A3008531602585312D
:100BF600F00070082000A400853160250800200060
:100C06008E1724009513FF30853159258631FF3024
:100C1600853159258631FF30853159258631FF309A
:100C2600853159258631FF30853159258631FF308A
:100C3600853159258631FF30853159258631FF307A
:100C4600853159258631FF30853159258631FF306A
:100C560085315925863120008E1324009513F10124
:100C6600F201F301F401003086318E26863185319A
:100C76008C25863100000130853167258631003AA2
:100C86000319322EF101F201F301F30AAA30F90039
:100C96007908F400083086318E2686318531D525CF
:100CA60086310000F001F101F201F20AAA30F900E2
:100CB6007908F300013085319D258631003A031904
:100CC600452EF101F201F301F401373086318E260B
:100CD600863185318C2586310000013085316725C6
:100CE6008631003A0319642E4030F9007908F10084
:100CF600F201F301F401293086318E2686318531E1
:100D06008C25863100000030853167258631003A12
:100D1600031D0800642EF600F80176083F394038B6
:100D2600F5007508F700770885315925863178353D
:100D3600F5007508F80078087706F5007508F800DC
:100D46007808003E840088300318013E85000008BC
:100D5600F5007508F8007108F5007508F7007708C2
:100D66008531592586317835F5007508F8007808FB
:100D76007706F5007508F8007808003E840088308C
:100D86000318013E85000008F5007508F800720892
:100D9600F5007508F70077088531592586317835CD
:100DA600F5007508F80078087706F5007508F8006C
:100DB6007808003E840088300318013E850000084C
:100DC600F5007508F8007308F5007508F700770850
:100DD6008531592586317835F5007508F80078088B
:100DE6007706F5007508F8007808003E840088301C
:100DF6000318013E85000008F5007508F800740820
:100E0600F5007508F700770885315925863178355C
:100E1600F5007508F80078087706F5007508F800FB
:100E26007808003E840088300318013E85000008DB
:100E3600F5007508F8000314780DF5007508F7003D
:100E4600770885315925080020008E170E172400D3
:100E56009513FF30853159258731FF308531592566
:100E66008731FF30853159258731FF308531592546
:100E76008731FF30853159258731FF308531592536
:100E86008731FF30853159258731FF308531592526
:100E96008731FF30853159258731FF308531592516
:100EA600873120000E1324009513F201F30101305F
:100EB600F2070030F33D7308803AF100A730710263
:100EC600031D672F10307202031C5A2F21008E1249
:100ED60020008E123830853159258731F401F5010D
:100EE6000130F4070030F53D7508803AF100A7306F
:100EF6007102031D802F10307402031C732F0F30F4
:100F0600853159258731F601F7010130F6070030A2
:100F1600F73D7708803AF100A7307102031D952F3F
:100F260010307602031C882F013085315925873110
:100F3600F801F9010130F8070030F93D7908803AE7
:100F4600F100A7307102031DAA2F10307802031C8E
:100F56009D2F0630853159258731FA01FB01013075
:100F6600FA070030FB3D7B08803AF100A73071029A
:100F7600031DBF2F10307A02031CB22F20008E16DD
:100F8600FC01FD010130FC070030FD3D7D08803A83
:100F9600F100A7307102031DD22F10307C02031C12
:100FA600C52F4130853159250800533084008530DE
:100FB60085001200A0001200A1001200A20012007B
:100FC600A3001200A4001200A500F0308400253012
:100FD60085000030FE000230FF0085317125873123
:100FE600F0308400213085000030FE000230FF0022
:100FF60085317125200085317D2D00340934123468
:101006001B3424342D3436343F34483441345A3476
:1010160053346C3465347E347734193410340B34DD
:1010260002343D3434342F34263451345834433466
:101036004A3475347C3467346E3432343B3420346D
:10104600293416341F3404340D347A347334683436
:1010560061345E3457344C3445342B3422343934BD
:1010660030340F3406341D34143463346A34713426
:10107600783447344E3455345C3464346D347634C5
:101086007F344034493452345B342C3425343E3476
:101096003734083401341A3413347D3474346F34DD
:1010A6006634593450344B34423435343C34273466
:1010B6002E341134183403340A3456345F3444342D
:1010C6004D3472347B34603469341E3417340C3436
:1010D60005343A343334283421344F3446345D34BD
:1010E60054346B3462347934703407340E34153426
:1010F6001C3423342A34313438344134483453349C
:101106005A3465346C3477347E34093400341B34F5
:1011160012342D3424343F343634583451344A345E
:1011260043347C3475346E346734103419340234E5
:101136000B3434343D3426342F3473347A346134EA
:10114600683457345E3445344C343B3432342934B5
:1011560020341F3416340D3404346A34633478343E
:1011660071344E3447345C34553422342B343034A5
:10117600393406340F3414341D3425342C343734C2
:101186003E340134083413341A346D3464347F34F5
:101196007634493440345B3452343C3435342E345E
:1011A6002734183411340A34033474347D346634E5
:1011B6006F345034593442344B3417341E340534AA
:1011C6000C3433343A34213428345F3456344D34B5
:1011D60044347B347234693460340E3407341C343E
:1011E60015342A3423343834313446344F345434A5
:0A11F6005D3462346B3470347934D8
:020000040001F9
:04000E00E4FFFFFF0D
:00000001FF
